:020000040800F2
:100000003806002089010008C7010008C90100085E
:10001000CB010008CD010008CF010008000000005E
:10002000000000000000000000000000D1010008F6
:10003000D301000800000000D5010008D701000826
:10004000D9010008D9010008D9010008D901000828
:10005000D9010008D9010008D9010008D901000818
:10006000D9010008D9010008D9010008D901000808
:10007000D9010008D9010008D9010008D9010008F8
:10008000D9010008D9010008D9010008D9010008E8
:10009000D9010008D9010008D9010008D9010008D8
:1000A000D9010008D9010008D9010008D9010008C8
:1000B000D9010008D9010008D9010008D9010008B8
:1000C000D9010008D9010008D9010008D9010008A8
:1000D000D9010008D9010008D9010008D901000898
:1000E000D9010008D9010008D9010008D901000888
:1000F000D9010008D9010008D9010008D901000878
:10010000D9010008D9010008D9010008D901000867
:10011000D9010008D9010008D9010008D901000857
:10012000D9010008D9010008D9010008D901000847
:10013000D9010008D9010008D9010008D901000837
:10014000D9010008D9010008D9010008D901000827
:10015000D9010008D9010008D9010008D901000817
:10016000D9010008D9010008D9010008D901000807
:10017000D9010008D9010008D901000800000000D9
:10018000D9010008D901000817481849184B9942AD
:100190003CBF50F8042B41F8042BF8D3154B1649FB
:1001A0004FF000028B4238BF43F8042BFAD3DFF83C
:1001B0004C00016841F470010160BFF34F8FBFF341
:1001C0006F8F0F480047FEE7FEE7FEE7FEE7FEE71A
:1001D000FEE7FEE7FEE7FEE7FEE7000009480A4902
:1001E0000A4A0B4B70470000E8020008000000209C
:1001F00038000020380000203806002088ED00E09C
:100200009D02000838000020380600203802002037
:100210003802002070477047704700000848C16CE2
:1002200041F00201C1640748016821F0300141F04A
:1002300010010160416941F004014161FEE70000E5
:1002400000100240000400480021084A116000200C
:1002500008E0074951F82010044A12681144034A83
:100260001160401C0A28F4DB00BFFEE728000020D4
:10027000000000200000000000000000064908689F
:100280004FF009024FF0050300FB02F090FBF3F082
:1002900000F120000860FEE72C00002010490868EB
:1002A0004FF009024FF005034FF0200400EE100A52
:1002B00001EE102A01EE903A02EE104AB8EE400A22
:1002C000B8EE411AF8EE611AB8EE422A20EE010AA1
:1002D00080EE210A30EE020A81ED000AFEE70000FE
:1002E00030000020000000000100000002000000BB
:1002F00003000000040000000500000006000000EC
:100300000700000008000000090000000A000000CB
:10031000000000001E0000001D00000000000000A2
:0400000500000000F7
:00000001FF
